:020000040000FA
:06000000FAEF01F012000E
:020006000000F8
:08000800D9CFE6FFDACFE6FFD5
:10001000E1CFD9FFE2CFDAFFF00E81169316939C61
:10002000939A93988A9C8A9A8A98B3EC00F0300E3F
:1000300035D8050EE66E9EEC01F0E552300E2ED856
:10004000010EE66E9EEC01F0E552320E27D82BD859
:10005000FEE129D8FEE1FD0EDBCFE6FF75EC01F0F5
:10006000E55221D8FEE1080E19D81DD8FEE10F0E89
:1000700015D819D8FEE1010E11D815D8FEE1040EED
:100080000DD811D8FEE1800EE66E21EC01F0E552AC
:10009000E552E5CFDAFFE7CFD9FF1200E66E75EC47
:0E00A00001F0E5521200B5EC01F0000912006B
:0200AE00060E3C
:1000B000F66E000EF76E000EF86E00010900F550A6
:1000C000856F0900F550866F03E1856701D03DD04B
:1000D0000900F550806F0900F550816F0900F55057
:1000E000826F09000900F550E96E0900F550EA6ECB
:1000F000090009000900F550836F0900F550846F6D
:1001000009000900F6CF87F0F7CF88F0F8CF89F023
:1001100080C0F6FF81C0F7FF82C0F8FF0001835363
:1001200002E1845307E00900F550EE6E8307F8E220
:100130008407F9D787C0F6FF88C0F7FF89C0F8FFAA
:0C01400000018507000E865BBFD712008F
:04014C0000000000AF
:10015000000000000000000000000000000000009F
:100160000000000012000F0EE66ECBEC01F0E5522D
:100170001200050EE66ECBEC01F0E5521200280EDF
:10018000E66E04EC00F0E552B5EC01F00009FCE18C
:10019000280EE66E75EC01F0E552B5EC01F00009B1
:1001A000FCE10F0EE66E75EC01F0E552B5EC01F0E6
:1001B0000009FCE1060EE66E75EC01F0E552120056
:1001C000DEDFB5EC01F00009FCE1400EE66E21EC4B
:1001D00001F0E552D60EE66E030EE66EF1EC00F08D
:0201E000FFD747
:0E01E200D9CFE6FFDACFE6FFE1CFD9FFE2CFBB
:1001F000DAFF1BD814E0B5EC01F00009FCE115D8DA
:10020000E66E4CEC01F0E552D950FB0FE96EFF0EA3
:10021000DA20EA6EEE2A000EEE22EE22EAD7E5524E
:10022000E5CFDAFFE7CFD9FF1200FB0EDBCFF6FFF9
:10023000FC0EDBCFF7FFFD0EDBCFF8FF0800F5501B
:020240001200AA
:0E024200D9CFE6FFDACFE6FFE1CFD9FFE2CF5A
:10025000DAFFF00E93168116FD0EDB508009E838A8
:100260000F0B0F0B81128A9C8A9A0FD8F00E811601
:10027000FD0EDB500F0B811208D80F0E9312E552C2
:10028000E5CFDAFFE7CFD9FF1200A6EC00F08A88AD
:08029000A6EC00F08A981200B0
:08029800D9CFE6FFDACFE6FF43
:1002A000E1CFD9FFE2CFDAFFF00E93168116FD0EF3
:1002B000DB380F0B0F0B81128A8A8A9C0FD8F00E45
:1002C0008116FD0EDB500F0B811208D80F0E931212
:1002D000E552E5CFDAFFE7CFD9FF1200A6EC00F038
:0A02E0008A88A6EC00F08A9812004C
:0602EA00D9CFE6FFDACFD8
:1002F000E6FFE1CFD9FFE2CFDAFFF00E93168116C9
:10030000FD0EDB380F0B0F0B81128A9C8A9A0FD8D7
:10031000F00E8116FD0EDB500F0B811208D80F0E68
:100320009312E552E5CFDAFFE7CFD9FF1200A6EC32
:0C03300000F08A88A6EC00F08A98120009
:04033C00FF0EE3507D
:10034000036EEF0E01D0F30EE76EE72EA5EF01F07E
:100350000C0E026EE76AE72EABEF01F0022EAAEF59
:0A03600001F0032EA3EF01F01200DC
:06036A008A8C8A9AA6ECC1
:1003700000F08A88A6EC00F081A602D003D8010C18
:1003800001D8000C8A98A6EC00F08A88A6EC00F050
:060390008A988A9C12000D
:0A039600FF0EE350036E480E01D085
:1003A0004C0EE76EE72EFED7E76AE72EFED7032E48
:0603B000F7D70000120067
:0A03B600000EF36E00EE00F0060EDC
:1003C00001D81200EA6002D0EE6AFCD7F350E9606F
:0603D0001200EE6AFCD7EA
:0A03D60044617263656C6C204E698F
:1003E00063686F6C6173204A616D65732047726149
:0403F00063656E00D3
:0C03F40015EE00F025EE00F0F86A019C08
:1004000057EC00F008EC02F0E0EC00F0FBD7120033
:020410001200D8
:020000040030CA
:0100010022DC
:010003000EEE
:010006008178
:00000001FF
