:0600000000F058EF04F0CF
:09060000005441504F5554000014
:10060A00FFFF036E0F0E83160F0E951695949592A3
:10061A0095908C948C928C9045EC04F0300EEFEC13
:10062A0003F00F0E026E9E0EFFFFE82EFDD7022E7C
:10063A00FBD7300EEFEC03F00F0E026E9E0EFFFF9B
:10064A00E82EFDD7022EFBD7320EEFEC03F0FFFFA8
:10065A0010EC04F00009D8A4FAD7FFFF10EC04F05C
:10066A000009D8A4FAD70350EFEC03F0FFFF10EC0F
:10067A0004F00009D8A4FAD7080EEFEC03F0FFFF44
:10068A0010EC04F00009D8A4FAD70F0EEFEC03F02F
:10069A00FFFF10EC04F00009D8A4FAD7010EEFEC22
:1006AA0003F0FFFF10EC04F00009D8A4FAD7040EF7
:1006BA00EFEC03F0FFFF10EC04F00009D8A4FAD71E
:1006CA00800E6AEC03F01200FFFFFFFF016E0F0EAF
:1006DA0095160F0E831601508009F00B83128C9425
:1006EA008C9250EC04F08C8050EC04F08C900F0E3D
:1006FA0083160138F00BF00B831250EC04F08C8057
:10070A0050EC04F08C90F00E95121200FFFFFFFFE0
:10071A0011D0FFFF10EC04F00009D8A4FAD702C0E8
:10072A00F6FF03C0F7FF0800FFFFF550ADEC03F03A
:10073A00024A032AFFFF02C0F6FF03C0F7FF0800C0
:10074A00FFFFF5500009D8B41200FFFFE2D7FFFF00
:10075A00FFFF016E0F0E95160F0E83160150F00B58
:10076A0083128C828C9450EC04F08C8050EC04F050
:10077A008C900F0E83160138F00BF00B831250EC9D
:10078A0004F08C8050EC04F08C90F00E951212005C
:10079A00FFFFFFFF280E05EC03F0FFFF10EC04F04B
:1007AA000009D8A4FAD7280EEFEC03F0FFFF10ECEB
:1007BA0004F00009D8A4FAD70F0EEFEC03F0FFFFFC
:1007CA0010EC04F00009D8A4FAD7060EEFEC03F0F7
:1007DA001200FFFFFFFF016E0F0E95160F0E831614
:1007EA000150F00B83128C948C9250EC04F08C80A4
:1007FA0050EC04F08C900F0E83160138F00BF00BBE
:10080A00831250EC04F08C8050EC04F08C90F00EC3
:10081A0095121200FFFFFFFF8C848C9250EC04F0BB
:10082A008C8050EC04F083AE0AD08C9050EC04F02B
:10083A008C8050EC04F08C908C94010E0AD0FFFF4F
:10084A008C9050EC04F08C8050EC04F08C908C94DA
:10085A00000EFFFF1200FFFFFFFFCEEC03F0FFFFC9
:10086A0010EC04F00009D8A4FAD7000E6AEC03F0E1
:10087A00010E026E060E036E8CEC03F0FFFFFED72C
:10088A00FFFF0F0E016E9E0EFFFFE82EFDD7012E11
:10089A00FBD71200FFFFFFFF040EFFFFE82EFDD774
:1008AA0000D01200FFFF000EF86E060EF76E000170
:0608BA0031EF04F0FFFF26
:020000040020DA
:08000000FFFFFFFFFFFFFFFF00
:020000040030CA
:0E000000FF220F0EFF0181FF0FC00FE00F4027
:00000001FF
